:100000000C943A000C9457000C9457000C94570031
:100010000C941B020C9439020C9457000C9457005A
:100020000C9457000C9457000C9457000C942A021F
:100030000C9457000C9457000C9482020C945700B7
:100040000C9457000C9457000C9459000C945700D2
:100050000C9457000C9457000C9457000C945700C4
:100060000C9457000C9457006364696E6F7073753D
:1000700078585B0011241FBECFEFD8E0DEBFCDBFA4
:1000800012E0A0E0B1E0E8E7F5E202C005900D92D1
:10009000A437B107D9F712E0A4E7B2E001C01D927E
:1000A000A03CB107E1F70E94DF020C94BA120C9455
:1000B00000001F920F920FB60F9211242F934F93AF
:1000C0005F938F939F93EF93FF932091C60080914E
:1000D000740290917502892BC9F42034E1F5E09106
:1000E0007802F0917902E657FD4F208380917802E3
:1000F000909179020196909379028093780281E041
:1001000090E0909375028093740225C04091740230
:100110005091750241305105F1F4E0917802F0916F
:100120007902E657FD4F2083809178029091790201
:1001300001969093790280937802243261F41092B0
:1001400079021092780250937702409376021092CF
:10015000750210927402FF91EF919F918F915F91C0
:100160004F912F910F900FBE0F901F90189586E022
:100170008093C200E1ECF0E0808188618083249A62
:100180002C9880818068808387E690E09093C500FA
:100190008093C4000895982F8091C00085FFFCCF04
:1001A0009093C6000895AC0120E030E0FA01E20F20
:1001B000F31FE0818091C00085FFFCCFE093C60073
:1001C000E43229F02F5F3F4F2431310579F708954C
:1001D00087B1877E87B988B1886188B986B188710F
:1001E0008093940280919402807180938A0280911E
:1001F000940288708093910280919102882339F44F
:1002000080918A02882319F41092920217C080917B
:100210009102882331F480918A02882311F081E0D1
:100220000BC080919102882331F080918A0288234B
:1002300011F482E001C083E08093920280919202E7
:100240008093930208959C0186B1887180939402F3
:1002500080919402807180938A02809194028870C8
:1002600080939102809192028823C9F48091910237
:10027000882349F480918A02882329F081E08093C1
:1002800093022F5F3F4F80919102882309F457C05A
:1002900080918A02882309F052C082E04CC080918C
:1002A00092028130C1F480919102882349F08091BB
:1002B0008A02882329F083E0809393022F5F3F4FC7
:1002C000809191028823D9F580918A028823B9F51B
:1002D0001092930232C0809192028230B1F48091E8
:1002E0009102882341F480918A02882321F410929C
:1002F00093022F5F3F4F80919102882301F18091FB
:100300008A028823E1F083E016C08091910288235D
:1003100049F080918A02882329F482E08093930235
:100320002F5F3F4F80919102882349F480918A0288
:10033000882329F081E0809393022150304081E0AE
:10034000213938071CF020E931E005C012161306E8
:1003500014F021E030E08091930280939202C90171
:1003600008959BB19F709BB99BB1807F892B8BB9FE
:10037000299A299A299808951F93182F289A0E943C
:10038000B101812F8295807F0E94B10180E49FE1BD
:100390000197F1F71F910895CF93DF93EC0102C00D
:1003A0000E94BC0189918823D9F7DF91CF910895EC
:1003B0001F93182F28980E94B101812F8295807F6A
:1003C0000E94B10180E49FE10197F1F71F91089528
:1003D000882319F4862F805802C0862F80540E94EB
:1003E000D801089584B1836084B98AB1806F8AB9D5
:1003F00080E69AEE0197F1F780E30E94B10180E276
:100400009EE40197F1F780E30E94B10180EE91E054
:100410000197F1F780E30E94B10180E20E94B101EF
:1004200080E49FE10197F1F788E20E94D8018FE014
:100430000E94D80108951F920F920FB60F921124B7
:100440008F9381E0809387028F910F900FBE0F9062
:100450001F9018951F920F920FB60F9211248F9331
:1004600081E0809385028F910F900FBE0F901F90B7
:1004700018951F920F920FB60F9211242F933F934E
:100480004F935F936F937F938F939F93AF93BF939C
:10049000EF93FF934A9B0AC010928500109284004C
:1004A000809181008260809381001BC060918400F4
:1004B0007091850080E090E00E94F10960937F02D6
:1004C00070938002809381029093820280918100D8
:1004D0008D7F8093810081E090E090937B028093F8
:1004E0007A02FF91EF91BF91AF919F918F917F9190
:1004F0006F915F914F913F912F910F900FBE0F9091
:100500001F9018951F920F920FB60F9211248F9380
:1005100080918902813019F41092890207C080917C
:100520008902882319F481E08093890280918902ED
:10053000882311F42D9A05C080918902813009F435
:100540002D988F910F900FBE0F901F901895329B92
:1005500002C080E0089580E29EE40197F1F7329BAB
:10056000FECF80E29EE40197F1F781E00895319B90
:1005700002C080E0089580E29EE40197F1F7319B8C
:10058000FECF80E29EE40197F1F781E0089581308B
:1005900081F485B5846085BD88E99AE320E931E07E
:1005A000F9013197F1F70197D9F785B58B7F85BDB3
:1005B0000895882319F485B58B7F85BD08952F9202
:1005C0003F924F925F926F927F928F929F92AF92E3
:1005D000BF92CF92DF92EF92FF920F931F93DF9320
:1005E000CF93CDB7DEB7A2970FB6F894DEBF0FBE9C
:1005F000CDBF0E94F2010E94B70081E00E94D801A5
:1006000080E091E00E94CC0181E060E00E94E8017E
:100610008BE091E00E94CC0180E197E220E931E09B
:10062000F9013197F1F70197D9F781E00E94D801DC
:100630000E94E800CE0108960E94CC01539A52987D
:100640005A9A3A983998429A419A3D9A239A259A09
:100650002D9884E690E00E947A1190936A0180932D
:10066000690188EE93E00E947A119093680180936B
:1006700067018091680082608093680080916C00BF
:10068000886180936C0080916D008C6080936D0018
:100690008091680084608093680080918100886008
:1006A0008093810080916F00826080936F0080E46E
:1006B00095EB909389008093880084B5826084BD17
:1006C00080916E00826080936E0082E387BD789493
:1006D000CC24C3940AE0402E512C17E9212E12E0BD
:1006E000312EB7E06B2E712CAAE18A2E912C8C0E44
:1006F0009D1E5E010894A11CB11C0E94B7028823B4
:1007000069F080917E02882319F4C0927E0206C0AF
:1007100080917E02813011F410927E020E94A70225
:10072000882329F05B9A85E38A95F1F75B9880919D
:100730007E028823D9F560E00E94E80183E191E020
:100740000E94CC0181E060E00E94E8018091690193
:1007500090916A012DB73EB7285030400FB6F894FB
:100760003EBF0FBE2DBFEDB7FEB7319628E030E09B
:100770002C0F3D1FADB7BEB712963C932E93119729
:10078000538242824AE151E05583448397838683B2
:100790000E94BD0C6DB77EB7685F7F4F0FB6F894AF
:1007A0007EBF0FBE6DBFCE0108963DC080917E0218
:1007B0008130D9F580E060E00E94E80183E291E0B9
:1007C0000E94CC0181E060E00E94E8018091670115
:1007D00090916801ADB7BEB718970FB6F894BEBF39
:1007E0000FBEADBFEDB7FEB7319621E130E02C0F63
:1007F0003D1F12963C932E93119749E050E053838E
:1008000042836AE171E075836483978386830E94E3
:10081000BD0C8DB79EB708960FB6F8949EBF0FBE5D
:100820008DBFCE0141960E94CC0180917E0288232B
:10083000C1F4809187028130A1F4609169017091C7
:100840006A0184E690E00E94801180916901909194
:100850006A010E94230190936A01809369011092BA
:10086000870280917E028130C1F4809187028130BD
:10087000A1F4609167017091680188EE93E00E9495
:10088000801180916701909168010E9423019093EB
:100890006801809367011092870280917A0290919B
:1008A0007B02019709F06EC110927B0210927A02CE
:1008B00060917F027091800280918102909182020A
:1008C0002AE939E949E351E40E94C1080E94EB0694
:1008D0007B018C01ADB7BEB718970FB6F894BEBFB9
:1008E0000FBEADBFEDB7FEB7319612963C922E9279
:1008F0001197738262822AE231E035832483778301
:1009000066830E94BD0C4DB75EB7485F5F4F0FB660
:10091000F8945EBF0FBE4DBFC1010E94D300C70156
:100920006AE070E00E945F0CFB017093BF0260936D
:10093000BE02F092B902E092B802C7016AE070E02C
:100940000E945F0C9093960280939502CF016AE01B
:1009500070E00E945F0C9093BD028093BC02CF01B7
:100960006AE070E00E945F0CFB0161157105D1F532
:100970008091BC029091BD02209195023091960227
:100980006DB77EB76A5070400FB6F8947EBF0FBE49
:100990006DBFEDB7FEB73196ADB7BEB712969C925C
:1009A0008E921197538242824FE251E055834483E5
:1009B00097838683318720870E94BD0C6DB77EB7F1
:1009C000665F7F4F0FB6F8947EBF0FBE6DBF80E0AD
:1009D0006BE00E94E80185E391E00E94CC0180E099
:1009E0006DE097C0CB016AE070E00E945F0C9093CD
:1009F000AB028093AA02CF016AE070E00E945F0C14
:100A0000CB0161157105E1F58091AA029091AB02CD
:100A10002091BC023091BD02409195025091960206
:100A2000ADB7BEB71C970FB6F894BEBF0FBEADBF33
:100A3000EDB7FEB7319612969C928E921197538223
:100A400042826BE371E07583648397838683318789
:100A50002087538742870E94BD0C8DB79EB70C96A6
:100A60000FB6F8949EBF0FBE8DBF80E06BE00E9472
:100A7000E80185E391E00E94CC0180E06CE049C090
:100A80006AE070E00E945F0C9093A2028093A10242
:100A90008091A1029091A2022091AA023091AB0212
:100AA0004091BC025091BD026091950270919602F6
:100AB000ADB7BEB71E970FB6F894BEBF0FBEADBFA1
:100AC000EDB7FEB7319612969C928E921197538293
:100AD0004282A3E4B1E0B583A48397838683318700
:100AE000208753874287758764870E94BD0CEDB7C6
:100AF000FEB73E960FB6F894FEBF0FBEEDBF80E086
:100B00006BE00E94E80185E391E00E94CC0180E067
:100B10006BE00E94E801C4010E94CC018091850233
:100B2000813051F480E06BE00E94E8018DE491E0B7
:100B30000E94CC011092850280917E028823E1F40C
:100B40002091BE023091BF028091690190916A01AB
:100B5000821793071CF4459A2B9814C02091BE026B
:100B60003091BF028091690190916A01281739077D
:100B70004CF445982B9A06C080917E02813011F486
:100B80002B98459880917E02813009F0B6CD8091F6
:100B9000760290917702892B09F4AFCD80918B0278
:100BA0008093B20280918C028093B30280918D0277
:100BB0008093B40280918E028093B50200D000D061
:100BC00000D0EDB7FEB7319622EB32E0ADB7BEB73D
:100BD00012963C932E93119743E551E05383428341
:100BE00060EB72E0758364830E94EE0C10927702D2
:100BF000109276028091B0029091B1029093AD0272
:100C00008093AC022091B0023091B102C9016AE038
:100C100070E00E945F0C182F092FC9016AE070E094
:100C20000E945F0C9B01CB016AE070E00E945F0CA8
:100C3000482FE92EC9016AE070E00E945F0C9B0119
:100C40008DB79EB706960FB6F8949EBF0FBE8DBFA8
:100C50006115710501F5ADB7BEB71A970FB6F894D7
:100C6000BEBF0FBEADBFEDB7FEB731961296BC92B8
:100C7000AE9211977382628226E531E03583248338
:100C80004683E782108701870E94BD0C4DB75EB78F
:100C9000465F5F4F5FC0CB016AE070E00E945F0C6F
:100CA000F82ED92EC9016AE070E00E945F0CCB01DA
:100CB0006115710529F56DB77EB76C5070400FB6A0
:100CC000F8947EBF0FBE6DBFEDB7FEB73196ADB7DE
:100CD000BEB71296BC92AE921197738262822EE5D5
:100CE00031E035832483F682D7824087E1861287FC
:100CF00003870E94BD0C4DB75EB7445F5F4F2AC0AB
:100D00006DB77EB76E5070400FB6F8947EBF0FBEC1
:100D10006DBFEDB7FEB73196ADB7BEB71296BC92B8
:100D2000AE9211977382628223E431E0358324838B
:100D30006AE070E00E945F0C97838683F086D1861C
:100D40004287E386148705870E94BD0C4DB75EB7C6
:100D5000425F5F4F0FB6F8945EBF0FBE4DBF81E09C
:100D60006BE00E94E801C5010E94CC0180916701FF
:100D7000909168014091B0025091B1029C01F3E062
:100D8000220F331FFA95E1F7880F991F280F391F9B
:100D9000421753071CF4C092880218C08091670163
:100DA000909168014091B0025091B1029C0173E0B2
:100DB000220F331F7A95E1F7880F991F280F391FEB
:100DC000421753070CF499CC109288028091880244
:100DD0000E94C70292CCEF92FF920F931F937B0168
:100DE0008C0120E030E040E05FE40E946D09882340
:100DF0008CF0C801B70120E030E040E05FE40E94E1
:100E000063080E949D099B01AC0120503040404086
:100E1000504806C0C801B7010E949D099B01AC0162
:100E2000B901CA011F910F91FF90EF900895A0E0C2
:100E3000B0E0EDE1F7E00C94860CDC012B01FA0147
:100E40009C91923008F439C1EB018881823008F41A
:100E500033C1943069F4843009F02FC111969C910C
:100E600011978981981709F428C1ABE6B1E025C133
:100E7000843009F421C18230A9F4923009F01DC1F7
:100E80009A01AD0188E0EA010990AE01E9010992F9
:100E90009E018150C1F7E201898111969C918923BD
:100EA000818308C1923009F407C112962D903C90BD
:100EB0001397EB018A819B811496AD90BD90CD90E4
:100EC000DC901797EC80FD800E811F819101281B1B
:100ED000390BB90137FF04C066277727621B730BF4
:100EE000603271050CF061C0121613066CF5370103
:100EF0004801062E04C096948794779467940A94C8
:100F0000D2F721E030E040E050E004C0220F331F70
:100F1000441F551F6A95D2F7215030404040504041
:100F20002E213F2140235123211531054105510533
:100F300021F021E030E040E050E079018A01E6282C
:100F4000F728082919293CC0232BD1F1260E371E7A
:100F500035014601062E04C09694879477946794D1
:100F60000A94D2F721E030E040E050E004C0220FC4
:100F7000331F441F551F6A95D2F72150304040401F
:100F800050402A213B214C215D212115310541058D
:100F9000510521F021E030E040E050E059016A01C4
:100FA000A628B728C828D9280BC0821593052CF08D
:100FB0001C01AA24BB24650103C0EE24FF24870181
:100FC00011969C91D20111968C91981709F445C005
:100FD000992339F0A80197012A193B094C095D09A9
:100FE00006C0A60195012E193F09400B510B57FD74
:100FF00008C011823382228224833583468357833B
:101000001DC081E081833382228288279927DC01F9
:10101000821B930BA40BB50B84839583A683B783A4
:101020000DC0220F331F441F551F24833583468371
:1010300057838281938101979383828324813581B1
:1010400046815781DA01C9010197A109B1098F5F72
:101050009F4FAF4FBF4328F30BC09183338222824F
:10106000EA0CFB1C0C1D1D1DE482F5820683178310
:1010700083E08083248135814681578157FF1AC0E0
:10108000C901AA2797FDA095BA2F81709070A07012
:10109000B0705695479537952795822B932BA42BA7
:1010A000B52B84839583A683B78382819381019630
:1010B00093838283DF0101C0D201CD01CDB7DEB7BA
:1010C000E2E10C94A20CA0E2B0E0E9E6F8E00C94B6
:1010D000920C69837A838B839C832D833E834F8319
:1010E0005887E9E0EE2EF12CEC0EFD1ECE010196A4
:1010F000B7010E948E0B8E010F5E1F4FCE01059629
:10110000B8010E948E0B8A8991E089278A8BC701DA
:10111000B801AE01475E5F4F0E9417070E94B90AEF
:10112000A096E6E00C94AE0CA0E2B0E0EAE9F8E0AC
:101130000C94920C69837A838B839C832D833E83EA
:101140004F835887F9E0EF2EF12CEC0EFD1ECE01F7
:101150000196B7010E948E0B8E010F5E1F4FCE01CC
:101160000596B8010E948E0BC701B801AE01475E1B
:101170005F4F0E9417070E94B90AA096E6E00C9400
:10118000AE0CA8E1B0E0E7ECF8E00C948E0C6983BB
:101190007A838B839C832D833E834F835887B9E06A
:1011A000EB2EF12CEC0EFD1ECE010196B7010E9434
:1011B0008E0B8E010F5E1F4FCE010596B8010E9467
:1011C0008E0B2985223008F47EC03989323010F424
:1011D000B8017CC08A859A8989278A87243011F0D2
:1011E000223031F4231709F06EC06BE671E06EC057
:1011F000343039F41D861E861F86188A1C861B868D
:1012000004C0323021F484E08987B7015FC02B85A8
:101210003C858B899C89281B390B3C872B87ED8467
:10122000FE840F851889AD88BE88CF88D88CEA14D3
:10123000FB040C051D0540F4EE0CFF1C001F111FE4
:10124000215030403C872B8720E030E040E050E0E8
:1012500080E090E0A0E0B0E460E070E0EA14FB041D
:101260000C051D0540F0282B392B4A2B5B2BEA1867
:10127000FB080C091D09B695A79597958795EE0C67
:10128000FF1C001F111F6F5F7F4F6F31710531F71A
:10129000DA01C9018F779070A070B0708034910529
:1012A000A105B10561F427FD0AC0E114F1040105AF
:1012B000110529F0205C3F4F4F4F5F4F20782D875D
:1012C0003E874F87588BBE01675F7F4FCB010E94DF
:1012D000B90A6896EAE00C94AA0CA8E1B0E0E3E74A
:1012E000F9E00C94920C69837A838B839C832D8321
:1012F0003E834F83588789E0E82EF12CEC0EFD1ECB
:10130000CE010196B7010E948E0B8E010F5E1F4F1A
:10131000CE010596B8010E948E0B8985823040F07F
:101320008989823028F0C701B8010E94060C01C0EB
:101330008FEF6896E6E00C94AE0CACE0B0E0E3EA28
:10134000F9E00C94960C69837A838B839C83CE019D
:101350000196BE016B5F7F4F0E948E0B8D818230A4
:1013600061F1823050F1843021F48E81882351F173
:101370002EC02F81388537FD20C06E812F31310579
:101380001CF06623F9F023C08EE190E0821B930BE2
:1013900029853A854B855C8504C0569547953795D8
:1013A00027958A95D2F76623B1F0509540953095F0
:1013B00021953F4F4F4F5F4F0EC020E030E040E09F
:1013C00050E009C02FEF3FEF4FEF5FE704C020E090
:1013D00030E040E050E8B901CA012C96E2E00C94FC
:1013E000B20CA8E0B0E0E7EFF9E00C948E0C7B01C2
:1013F0008C01611571058105910519F482E08983DD
:1014000060C083E089838EE1C82ED12CDC82CB8240
:10141000ED82FE820F831887C801B7010E946A0A15
:10142000FC013197F7FF3BC0222733272E1B3F0BD0
:1014300057016801022E04C0D694C794B794A794AC
:101440000A94D2F740E050E060E070E081E090E084
:10145000A0E0B0E004C0880F991FAA1FBB1F2A9507
:10146000D2F70197A109B1098E219F21A023B123B1
:101470000097A105B10521F041E050E060E070E087
:101480004A295B296C297D294D835E836F83788788
:101490008EE190E08E1B9F0B9C838B8312C0309754
:1014A00081F00E2E04C0EE0CFF1C001F111F0A94C9
:1014B000D2F7ED82FE820F831887CE1ADF0ADC8214
:1014C000CB821A82CE0101960E94B90A2896EAE0E0
:1014D0000C94AA0CEF92FF920F931F937B018C0147
:1014E00080E0E81680E0F80681E0080780E0180751
:1014F00088F48FEFE816F1040105110531F028F0AA
:1015000088E090E0A0E0B0E017C080E090E0A0E0CC
:10151000B0E012C080E0E81680E0F80680E008073E
:1015200081E0180728F088E190E0A0E0B0E004C076
:1015300080E190E0A0E0B0E020E230E040E050E068
:10154000281B390B4A0B5B0B04C016950795F794C3
:10155000E7948A95D2F7F701ED58FE4F8081281B5A
:10156000310941095109C9011F910F91FF90EF9075
:101570000895DF92EF92FF920F931F93FC01E48096
:10158000F58006811781D1808081823048F480E027
:1015900090E0A0E1B0E0E82AF92A0A2B1B2BA5C0B5
:1015A000843009F49FC0823021F4EE24FF248701A7
:1015B00005C0E114F1040105110519F4E0E0F0E0C3
:1015C00096C0628173819FEF623879070CF05BC02F
:1015D00022E83FEF261B370B2A3131052CF020E0A3
:1015E00030E040E050E02AC0B801A701022E04C05C
:1015F00076956795579547950A94D2F781E090E0E4
:10160000A0E0B0E004C0880F991FAA1FBB1F2A9555
:10161000D2F70197A109B1098E219F21A023B123FF
:101620000097A105B10521F081E090E0A0E0B0E0D5
:101630009A01AB01282B392B4A2B5B2BDA01C9010C
:101640008F779070A070B07080349105A105B105BE
:1016500039F427FF09C0205C3F4F4F4F5F4F04C054
:10166000215C3F4F4F4F5F4FE0E0F0E02030A0E0C3
:101670003A07A0E04A07A0E45A0710F0E1E0F0E0E2
:1016800079018A0127C06038710564F5FB01E158D2
:10169000FF4FD801C7018F779070A070B070803471
:1016A0009105A105B10539F4E7FE0DC080E490E095
:1016B000A0E0B0E004C08FE390E0A0E0B0E0E80E6E
:1016C000F91E0A1F1B1F17FF05C016950795F794F3
:1016D000E794319687E016950795F794E7948A95F5
:1016E000D1F705C0EE24FF248701EFEFF0E06E2F65
:1016F000679566276795902F9F77D794DD24D794B9
:101700008E2F8695492F462B582F5D29B701CA0188
:101710001F910F91FF90EF90DF900895FC01DB0186
:10172000408151812281622F6F7770E0221F222732
:10173000221F9381892F880F822B282F30E0991F39
:101740009927991F11969C93119721153105A9F599
:10175000411551056105710511F482E037C082E839
:101760009FEF13969C938E9312979A01AB0167E0BB
:10177000220F331F441F551F6A95D1F783E08C93C6
:101780000DC0220F331F441F551F12968D919C913F
:101790001397019713969C938E931297203080E0B5
:1017A000380780E0480780E4580758F314962D93D3
:1017B0003D934D935C93179708952F3F310579F42E
:1017C000411551056105710519F484E08C93089564
:1017D00064FF03C081E08C9312C01C9210C02F578D
:1017E000304013963C932E93129783E08C9387E0BE
:1017F000440F551F661F771F8A95D1F770641496A2
:101800004D935D936D937C93179708951F93DC011F
:10181000FB019C91923008F447C08081823008F42B
:1018200043C0943051F411961C91843099F5818114
:10183000682F70E0611B71093FC0843021F0923045
:1018400031F48230B9F18181882389F12DC011965C
:101850001C9111978230F1F081811817D9F41296FA
:101860002D913C911397828193818217930794F075
:1018700028173907BCF014968D919D910D90BC915D
:10188000A02D2481358146815781281739074A07C1
:101890005B0718F4112341F00AC082179307A407CD
:1018A000B50740F4112319F061E070E005C06FEF57
:1018B0007FEF02C060E070E0CB011F91089597FBBD
:1018C000092E07260AD077FD04D00CD006D00020C0
:1018D0001AF4709561957F4F0895F6F7909581956C
:1018E0009F4F0895AA1BBB1B51E107C0AA1FBB1F36
:1018F000A617B70710F0A61BB70B881F991F5A959C
:10190000A9F780959095BC01CD0108952F923F9243
:101910004F925F926F927F928F929F92AF92BF92FF
:10192000CF92DF92EF92FF920F931F93CF93DF93AB
:10193000CDB7DEB7CA1BDB0B0FB6F894DEBF0FBE08
:10194000CDBF09942A88398848885F846E847D8455
:101950008C849B84AA84B984C884DF80EE80FD8057
:101960000C811B81AA81B981CE0FD11D0FB6F894CD
:10197000DEBF0FBECDBFED010895AEE0B0E0E3ECF9
:10198000FCE00C94940C0D891E898F89988D97FF2B
:1019900002C080E090E801979E838D831A830983BB
:1019A00086E08C839E01255E3F4FCE010196698DB6
:1019B0007A8DA9010E94080D4D815E8157FD0AC0F4
:1019C0002F813885421753070CF49A01020F131F19
:1019D000F80110822E96E4E00C94B00CAEE0B0E07A
:1019E000E4EFFCE00C94960C85E08C838B899C8959
:1019F0009A8389839E01295E3F4FCE0101966D89AE
:101A00007E89A9010E9469102E96E2E00C94B20C26
:101A1000ABE0B0E0EEE0FDE00C94860C3C012B0165
:101A20005A01FC0117821682838181FD03C06FEF8A
:101A30007FEFC6C19AE0892E1E010894211C311C3B
:101A4000F3012381F20123FD859123FF81912F0171
:101A5000882309F4B2C1853239F423FD859123FF2F
:101A600081912F01853229F490E0B3010E94F11198
:101A7000E7CF982FFF24EE249924FFE1FF15D0F043
:101A80009B3269F09C3228F4903259F0933291F4F1
:101A90000EC09D3249F0903369F441E024C052E019
:101AA000F52A84E0F82A28C098E0F92A25C0E0E168
:101AB000FE2A22C0F7FC29C0892F80538A3070F497
:101AC000F6FE05C0989C902C1124980E15C0E89C39
:101AD000E02C1124E80EF0E2FF2A0EC09E3229F419
:101AE000F6FC6BC140E4F42A07C09C3619F450E8B8
:101AF000F52A02C0983649F4F20123FD959123FF9F
:101B000091912F01992309F0B8CF892F8554833003
:101B100018F08052833038F444E050E0A40EB51E33
:101B20005FE359830FC0933631F0933779F09335E3
:101B300009F056C020C0F5018081898342E050E061
:101B4000A40EB51E610101E010E012C0F501C080D5
:101B5000D180F6FC03C06FEF7FEF02C0692D70E00B
:101B600042E050E0A40EB51EC6010E94A4118C01F3
:101B70005FE7F52214C0F501C080D180F6FC03C0F8
:101B80006FEF7FEF02C0692D70E042E050E0A40EDD
:101B9000B51EC6010E9499118C0150E8F52AF3FE8A
:101BA00007C01AC080E290E0B3010E94F111EA94EC
:101BB0008E2D90E008171907A8F30EC0F601F7FC68
:101BC0008591F7FE81916F0190E0B3010E94F111C0
:101BD000E110EA94015010400115110579F7EAC0AF
:101BE000943611F0993669F5F7FE08C0F5012081A9
:101BF00031814281538184E090E00AC0F501808107
:101C000091819C01442737FD4095542F82E090E05C
:101C1000A80EB91E9FE6F92257FF09C050954095BE
:101C2000309521953F4F4F4F5F4FE0E8FE2ACA01A4
:101C3000B901A1012AE030E00E943712D82ED21853
:101C400040C0953729F41F2D1F7E2AE030E01DC0CB
:101C50001F2D197F9F3661F0903720F4983509F0D9
:101C6000ACC00FC0903739F0983709F0A6C004C057
:101C700028E030E00AC0106114FD146020E130E07B
:101C800004C014FD166020E132E017FF08C0F50122
:101C9000608171818281938144E050E008C0F50148
:101CA00080819181BC0180E090E042E050E0A40E90
:101CB000B51EA1010E943712D82ED2188FE7F82E38
:101CC000F122F6FE0BC05EEFF522D91438F4F4FED3
:101CD00007C0F2FC05C08FEEF82202C01D2D01C026
:101CE000192DF4FE0DC0FE01ED0DF11D8081803334
:101CF00019F499EEF92208C01F5FF2FE05C003C077
:101D00008F2D867809F01F5F0F2DF3FC14C0F0FEB5
:101D10000FC01E1510F09D2C0BC09D2C9E0C911A0F
:101D20001E2D06C080E290E0B3010E94F1111F5FFA
:101D30001E15C0F304C01E1510F4E11A01C0EE24F4
:101D400004FF0FC080E390E0B3010E94F11102FF95
:101D50001DC001FD03C088E790E00EC088E590E05B
:101D60000BC0802F867891F001FF02C08BE201C08A
:101D700080E2F7FC8DE290E0B3010E94F11106C011
:101D800080E390E0B3010E94F1119A94D914C0F35A
:101D9000DA94F101ED0DF11D808190E0B3010E9414
:101DA000F111DD20A9F706C080E290E0B3010E94A6
:101DB000F111EA94EE20C1F743CEF30166817781F9
:101DC000CB012B96E2E10C94A20CFC0120FD08C093
:101DD00023FD05C022FF02C07383628351834083C9
:101DE0000895EF92FF920F931F9344FF02C033E0D8
:101DF00011C046FF02C034E00DC0DB01FC01AA0F98
:101E0000BB1FEE1FFF1F1094D1F76A0F7B1F8E1FA1
:101E10009F1F31E0660F771F881F991F3150D1F740
:101E20007B018C01E20EF11C011D111DA80197011F
:101E3000B701CA011F910F91FF90EF9008950F9382
:101E40001F93CF93DF938C01C8010E94AF11EC0167
:101E500097FD08C00E948611892BB1F7CE01B80109
:101E60000E941D12CE01DF91CF911F910F91089515
:101E7000A0E0B0E0EEE3FFE00C948E0CEC01C62E87
:101E80005A01122F0E94AF11AC018B3219F08D3222
:101E900051F41068CA9409F46DC0CE010E94AF11CC
:101EA000AC0197FD67C06DEFD62ED1228D2D8073CA
:101EB00001F54033F1F4CA9409F447C0CE010E9401
:101EC000AF11AC0197FD41C082E0D82A483711F02C
:101ED000483559F480E4D82ACA94B9F1CE010E9459
:101EE000AF11AC0199232CF430C0D6FC02C080E1C4
:101EF000D82AEE24FF248701242F2053283088F08D
:101F0000D4FC09C02A3068F0D6FE05C02F7D822F90
:101F10008151863028F0CA01BE010E941D1212C0F4
:101F20002750C801B7014D2D0E94F10E7B018C0195
:101F300082E0D82ACA9461F0CE010E94AF11AC01B0
:101F400097FFDACFD1FC04C015C0EE24FF2487012F
:101F5000D7FE08C010950095F094E094E11CF11CA8
:101F6000011D111DC501B801A7012D2D0E94E50E0F
:101F700081E001C080E0CDB7DEB7EAE00C94AA0CA6
:101F8000A0E2B0E0E6ECFFE00C948A0C6C01A62E17
:101F90008A017901FE01319680E2DF011D928A9566
:101FA000E9F770E030E060E040E050E04F01A1E090
:101FB000B0E0F6018381F70183FD259183FF219134
:101FC0007F01222309F47EC02E3519F441155105F5
:101FD00069F1872F90E08417950744F42D3551F16E
:101FE0002D3221F4332329F431E021C0332309F4C5
:101FF000622F322F832F869586958695F401E80F00
:10200000F11D832F87703D0102C0660C771C8A95F5
:10201000E2F7208126292083361711F430E007C02B
:10202000361710F43F5FE6CF3150E4CF71E04F5FD9
:102030005F4FBFCF332319F08E8180628E83772369
:1020400059F0FE0131969E012F5D3F4F80818095B2
:102050008193E217F307D1F7BB24B3944E010894A0
:10206000811C911CC6010E94AF11AC0197FD22C0DA
:10207000869586958695F401E80FF11D808190E0A4
:102080009A012770307002C0959587952A95E2F7DE
:1020900080FD05C0CA01B6010E941D120BC00115CA
:1020A000110519F0D8014D938D01AA94BB24AA20E3
:1020B000C9F602C0BB2031F40115110529F0F80161
:1020C000108202C0EE24FF24C701A096EEE00C941B
:1020D000A60CA0E0B0E0EFE6F0E10C948A0C5C0105
:1020E0006B013A01FC01178216828824EAC0812F15
:1020F00090E00E948611892B21F0C5010E941F0FDC
:10210000E0C0153249F4F601F3FC6591F3FE6191EC
:102110006F01653269F415E2C5010E94AF1197FDA8
:10212000DCC0181709F4CDC0B5010E941D12DAC039
:102130006A3219F0162F00E006C0F3FC1591F3FE89
:1021400011916F0101E099240FC00260692D70E0C8
:1021500080E090E040E20E94F10E962EF601F3FC42
:102160001591F3FE11916F01212F20532A3068F34E
:1021700001FD03C099249A9403C0992009F4B2C0C8
:10218000183621F01C3699F4F6010BC0F601F3FC69
:102190006591F3FE6191683619F06F01162F07C043
:1021A00008600460F3FC1591F3FE11916F01112397
:1021B00009F498C088E690E0612F70E00E948E11CB
:1021C000892B09F48FC0802F00FF03C0EE24FF2469
:1021D00007C0F301E080F18022E030E0620E731E60
:1021E0001E3651F4F5014681578160E070E0C70169
:1021F000202F0E94E50E65C0133691F481FD02C0C8
:1022000099249394C5010E94AF1197FD66C0E11413
:10221000F10419F0F70181937F019A9499F74FC067
:102220001B3559F4C501692DA70196010E94C00F05
:102230006C01009709F043C03DC0C5010E941F0F0B
:1022400097FD4BC01F3659F1103728F4143629F189
:10225000193639F527C0133719F0153711F51DC098
:10226000C5010E94AF11EC0197FD11C00E948611BB
:10227000892B29F0CE01B5010E941D1208C0E1147E
:10228000F10419F0F701C1937F019A9449F7E11421
:10229000F104A9F0F701108212C0006203C00061CE
:1022A00001C00064C501692DA701202F0E94380FCD
:1022B000882329F4F5018381807379F413C000FF2A
:1022C0008394F501F380F601F3FC1591F3FE11916F
:1022D0006F01112309F00BCF05C0882019F42FEFEF
:1022E0003FEF02C0282D30E0C901CDB7DEB7EEE0E8
:1022F0000C94A60CA8E1B0E042E050E00C949712D8
:102300000196272F0E94A6120C94A51291112FC19D
:10231000803219F089508550D0F70895FC0105905E
:10232000061621F00020D9F7C00108953197CF019A
:102330000895FC010590615070400110D8F7809518
:1023400090958E0F9F1F0895FC0161507040019081
:102350000110D8F7809590958E0F9F1F0895CF9309
:10236000DF93EC014B8140FF1AC046FF0AC04F7B50
:102370004B838E819F8101969F838E838A81282F34
:102380002BC042FF13C0E881F9818081282F3327B9
:1023900027FD30952115310529F440624B832FEF3D
:1023A0003FEF1BC03196F983E88311C0EA85FB85B6
:1023B000CE0109959C0197FF0AC09B812F5F3F4F7B
:1023C00011F080E201C080E1892B8B83E8CF8E8100
:1023D0009F8101969F838E8330E0C901DF91CF9169
:1023E00008950F931F93CF93DF938C01EB018B81A3
:1023F00081FF1BC082FF0DC02E813F818C819D819A
:102400002817390764F4E881F9810193F983E88397
:1024100006C0E885F985802F0995892B31F48E81D6
:102420009F8101969F838E8302C00FEF1FEFC8012B
:10243000DF91CF911F910F9108959C01FB01838142
:1024400080FF11C086FD0FC09FEF2F3F390759F065
:10245000228380648F7D8383868197810197978310
:10246000868330E002C02FEF3FEFC9010895FA01E3
:10247000AA27283051F1203181F1E8946F936E7FC3
:102480006E5F7F4F8F4F9F4FAF4FB1E03ED0B4E0B4
:102490003CD0670F781F891F9A1FA11D680F791FF5
:1024A0008A1F911DA11D6A0F711D811D911DA11D06
:1024B00020D009F468943F912AE0269F1124301916
:1024C000305D3193DEF6CF010895462F4770405DB1
:1024D0004193B3E00FD0C9F7F6CF462F4F70405D60
:1024E0004A3318F0495D31FD4052419302D0A9F7BB
:1024F000EACFB4E0A6959795879577956795BA95B5
:10250000C9F700976105710508959B01AC010A2E7A
:1025100006945795479537952795BA95C9F7620F51
:10252000731F841F951FA01D0895DC01CB01FC01C2
:10253000F999FECF06C0F2BDE1BDF89A319600B41C
:102540000D9241505040B8F70895262FF999FECFCB
:1025500092BD81BDF89A019700B4021639F01FBAF6
:1025600020BD0FB6F894FA9AF99A0FBE08959927EC
:0825700088270895F894FFCFBD
:102578004B7274696E204A61696E0050726F6A65A9
:102588006374004C6F63616C20004D696E3D256477
:1025980020200052656D6F74650040256424002575
:1025A800642E256400202020202000256425642E28
:1025B8002564002564256425642E25640020206692
:1025C800617200256400202025642E2564002025E2
:1025D8006425642E2564000100010000000000004D
:1025E80000000000010202030303030404040404BE
:1025F8000404040505050505050505050505050586
:102608000505050606060606060606060606060665
:102618000606060606060606060606060606060652
:102628000606060707070707070707070707070735
:102638000707070707070707070707070707070722
:102648000707070707070707070707070707070712
:102658000707070707070707070707070707070702
:1026680007070708080808080808080808080808E5
:1026780008080808080808080808080808080808D2
:1026880008080808080808080808080808080808C2
:1026980008080808080808080808080808080808B2
:1026A80008080808080808080808080808080808A2
:1026B8000808080808080808080808080808080892
:1026C8000808080808080808080808080808080882
:1026D8000808080808080808080808080808080872
:0426E80008080800D6
:040000050080027401
:00000001FF
